:020000040020DA
:10200000104400208D222000BFE22000BDE220000D
:10201000BDE22000BDE22000BDE220000000000083
:10202000000000000000000000000000BDE22000F1
:10203000BDE2200000000000BDE220004BE42000D3
:102040006DE4200073E4200079E420007FE42000A8
:102050000000000051E4200057E42000BDE2200011
:10206000BDE22000000000000000000000000000B1
:102070000000000000000000BDE2200000000000A1
:102080000000000000000000BDE22000BDE22000D2
:10209000BDE22000BDE22000BDE22000BDE2200044
:1020A000BDE22000BDE22000BDE22000BDE2200034
:1020B000BDE22000BDE22000BDE22000BDE2200024
:1020C000BDE22000BDE22000BDE22000BDE2200014
:1020D000BDE2200000000000000000000000000041
:1020E00000000000000000000000000000000000F0
:1020F000000000000000000041512000515120006C
:1021000000000000000000000000000000000000CF
:1021100000000000000000000000000000000000BF
:1021200000000000000000000000000000000000AF
:10213000000000000000000000000000000000009F
:10214000000000000000000000000000000000008F
:10215000000000000000000000000000000000007F
:10216000000000000000000000000000000000006F
:10217000000000000000000000000000000000005F
:10218000000000000000000000000000000000004F
:10219000000000000000000000000000000000003F
:1021A000000000000000000000000000000000002F
:1021B000000000000000000000000000000000001F
:1021C000000000000000000000000000000000000F
:1021D00000000000000000000000000000000000FF
:1021E00000000000000000000000000000000000EF
:1021F00000000000000000000000000000000000DF
:1022000000000000000000000000000000000000CE
:1022100000000000000000000000000000000000BE
:1022200000000000000000000000000000000000AE
:10223000000000000000000000000000000000009E
:10224000000000000000000000000000000000008E
:10225000000000000000000000000000000000007E
:10226000000000000000000000000000000000006E
:10227000BDE22000295020004D50200009472000D9
:102280005D51200009422000BDE22000FF224824C9
:1022900008B5084B08481A60084AE3690849121A49
:1022A00098470848084A0021A369121A984701F084
:1022B0004FFCFEE7B4200D404000002051060020F6
:1022C000C408210058060020093C002010B504462F
:1022D000436E9847034BE06E0022BDE8104019782A
:1022E00003F0B8BFF63B00202DE9F04F0C469046B6
:1022F0001F4685B093B391F8B0341BB101F59560DA
:102300000BF0F8FF94F8B13463BB98F80030012F5C
:1023100084F8B134D4F8AC3403F10103C4F8AC341C
:102320001CD0012594F8B73483BB08EB0500AF42FD
:1023300014D9D4F8AC3494F8B82401330132052B05
:1023400010F8011B05F10105C4F8AC3484F8B82479
:102350000AD9002280212046FFF7B8FF002005B0EF
:10236000BDE8F08F0025DDE794F8B634B4F8B26428
:1023700001F07F0202FB0362DB0184F8B6340B0636
:10238000A4F8B224D3D4012384F8B734B4F8B22427
:10239000B2F5007F40F2CD8094F8B13403F0F00341
:1023A000302B00F0C680D4F8AC3401321F44974281
:1023B000C4F8AC74D2D3012384F8B034CEE7302B08
:1023C00055D194F8BF36002B51D194F8BE36B3B92D
:1023D00018F80530691C1B02501CB942A4F8BA3623
:1023E000C4F8AC0480F0A38018F8011002320B434B
:1023F0000235A4F8BA36C4F8AC2484F8BE96B4F812
:10240000BEB6BBF1010F32D1B4F8BC06B4F8BA665F
:10241000791B361A8E4228BF0E4600F2C460B2B253
:1024200008EB0501204401920BF0A2F9D4F8AC347A
:10243000019AB4F8BC16154431441A44B4F8BA36BB
:1024400089B29942C4F8AC24A4F8BC160DD1631823
:1024500084F8BFB683F8C4A6B4F8B234023B591A64
:1024600089B2A4F81017A4F8121784F80E9794F8FC
:10247000B9047A1BC0F50076964228BF164600F2D2
:10248000BA40324608EB050120440BF071F994F88C
:10249000B924D4F8AC34324484F8B924002233444B
:1024A000C4F8AC343544D1B28E4202F10102FAD8FC
:1024B000BD4205D3B4F8B22401329342FFF44EAFCB
:1024C000B4F8B204D4F8AC2494F8B11401308242C8
:1024D00001F0F003FFF473AF402B4FF0010268D01E
:1024E0002CD8202B48D0302B7FF465AF002504F288
:1024F000BA43C4F8083794F8B9340421A4F80C3767
:102500002046A4F8125704F5D862FFF7DFFE94F8CE
:102510000E37012BB4F8123708BF84F80E57002B82
:102520007FF449AF04F595600BF0E4FE43E70D46F8
:102530009DE74FF001094FF0000AC1E7902B46D00C
:1025400009D8602B04D001F0D00150297FF433AFBB
:102550000022842129E0B02B7FF42DAF94F8BB3406
:1025600084F8992294F8BA24032143EA0223A4F8B8
:10257000B43404F2B44218E094F8BB342BB1822195
:10258000204604F2BB42FFF7A1FE0123E18A194A6B
:1025900084F89932C901234604F1180003F02CFD98
:1025A00000220823114684F860302046FFF78EFE93
:1025B00001E794F8BB3484F8992294F8BA240521F1
:1025C00043EA0223A4F8B43404F2B442EDE794F8E9
:1025D000BB3484F8992294F8BA24022143EA0223F6
:1025E00094F8BC24ADF80C308DF80E20A4F8B43467
:1025F00003AADAE7F925200010B590F83830024632
:102600008BB1022300F22C7480F8603020460CF06D
:10261000B2F9204607F068F82046BDE810403422A1
:1026200000210BF081B9034B03481978BDE8104035
:1026300003F010BE1423002070040020052330B5E1
:10264000002580F86030012385B00446A0F868308A
:10265000A0F89C5280F8385000F595600BF04AFEC7
:102660000E4B84F8745203930D4B04F22C750293B5
:102670004FF4007304F1740221460092284604F2DC
:10268000A622019306F0B2FF2846B4F8282704F5E5
:10269000E36105B0BDE8304006F0E0BFA5262000AC
:1026A000E922200013B5032A0C468DF807201DD817
:1026B00002B31E4B0A461E48197803F0CBFD0323D4
:1026C00004F1180084F8603003F0D8FC01212046A2
:1026D0000DF10702FFF7FAFD20460BF015FE637DB2
:1026E000012B05D12046FFF7A9FF01E0042A0ED0F7
:1026F00002B010BD062381F86030012381F87432E6
:102700000C4B0A460A48197803F0A4FDF0E7B1F82B
:102710004E372BB9012381F8743201F174030B6732
:1027200004F1180003F08EFCE2E700BF0F23002045
:10273000700400201123002038B51D4C2578002D91
:1027400034D103F025FD1B4B18701B4B187003F0A0
:102750001FFD1A4B187003F01BFD194B187003F086
:1027600017FD184B187003F013FD174B187003F08A
:102770000FFD164B187003F00BFD154B187003F08E
:1027800007FD144B187003F003FD134B1870134B27
:10279000187003F0FDFC124B187012480BF06BFF21
:1027A0002946114803F07EFD0123237038BD00BF88
:1027B0000E230020122300201923002011230020C3
:1027C00013230020162300201723002015230020A8
:1027D00014230020F63B00200F23002018230020A4
:1027E000102300206C06002070040020F8B51F465E
:1027F000137804460E46154633B34FF4EC620021BD
:102800000BF092F8294604F10C000BF0E4FD0025D2
:102810000123BDF818206375A4F8A422A4F8683039
:1028200004F595606766E666A4F89C5284F8385013
:102830000BF060FD84F87452FFF77EFF03482146D9
:102840000BF039FF2846F8BD8220FCE76C0600201B
:102850007FB50446084694F8601003291ED8E38229
:1028600004F17403236700236D4684F89932237DB5
:10287000294643F00203A4F828272375C4F8140757
:1028800004F5E3660CF083F895E80F0086E80F0086
:10289000044B22461978044803F0DCFC002004B005
:1028A00070BD00BF122300207004002090F860303B
:1028B0000246082B07D1092380F86030024B0348F9
:1028C000197803F0C7BC7047132300207004002060
:1028D0002DE9F3418DF8071040F2B941038806460F
:1028E0008B42154600F0F4832BD840F299418B427D
:1028F00000F0BF800BD8002B00F0CB8540F2824265
:10290000934241D000230320338000F0C6BD40F243
:10291000A7418B42F6D1664B9DF807101B788B427E
:1029200000F0AD80634B1B788B4200F21381624B49
:102930001B788B42C0F00E81604B186803F08AFC54
:1029400008E140F2D3418B4200F04E85B3F59C6F15
:1029500000F0528640F2C6418B42D3D1544B9DF8D1
:1029600007101B788B4200F08A80524B1B788B42F9
:1029700000F24F81504B1B788B42C0F04A814F4B85
:10298000186803F067FC44E1494B9DF807201B7869
:102990009A4207D14A4B28461D600A2385F86030C9
:1029A0000BF0B2FC474B9DF807201B789A4204D1EC
:1029B000434B28461D60FFF741FE434B9DF807201F
:1029C0001B789A4240F0B2803D4B1D60B5F8A432AE
:1029D000A5F8543795F87432012B40F0A7800023F6
:1029E000A5F89C32364F3C68B4F89C32002B6DD071
:1029F000A3F5CA739AB2352A00F29580352B00F2FE
:102A00009280DFE813F03201DF0190009000F801BE
:102A100002020C0216022002390243024D02570242
:102A20006102900090006B02A402AD029000B60219
:102A3000BF029B02900090009000900090009000D8
:102A400090009000C802D202DC029000900090003A
:102A50009000E6020D0304039000900090009000A7
:102A600090009000900090009000900090009000E6
:102A7000C8010F4B9DF807101B788B420AD10A2220
:102A80000F4B02201B6883F860200022A3F89C22D1
:102A900000F003BD074B1B788B42A3D8064B1B7875
:102AA0008B429FD3054B186803F0D4FB9AE700BF15
:102AB0000F2300201923002018230020D80800200D
:102AC000680600201223002011230020102384F820
:102AD0007832238A03B10233B4F854200C3302B1A4
:102AE00002329918B4F85C3003B10233CA18B4F852
:102AF000403003B102331344B4F8482002B102322B
:102B00001A44C4F87C2204F5217104F520700BF0FE
:102B1000D9FB94F88432042B40F2AC80002281214E
:102B20002046FFF7D3FB0023A4F89C32C94B9DF845
:102B300007101B7899422BD1C74B1D6095F8603068
:102B4000092B25D195F87432012B40F0BC8200236B
:102B5000A5F89C32C04F3C68B4F89C32B3F5F37FC3
:102B600000F09D8200F26882002B00F07C8240F22F
:102B7000E512934200F074820023A4F89C32386876
:102B80000BF0C2FB012138680DF10702FFF79EFB35
:102B9000B24B9DF807201B789A4224D1AE4B1D60A2
:102BA00095F87432012B1ED195F86030082B1AD19C
:102BB0000023A5F89C3240F2D321A74F3C68B4F81B
:102BC0009C328B4200F0D582B3F5357F80F096823F
:102BD000002B00F0AB8240F2D222934200F0A3829D
:102BE0000023A4F89C329E4B9DF807201B789A4244
:102BF00040F0F282984B1D6095F87432012B40F042
:102C0000EB8295F86030082B40F0E6820023A5F8AF
:102C10009C32914B1C689846B4F89C72002F00F0CF
:102C2000C282A7F50477BBB2142B00F27483142F71
:102C300000F27183DFE817F0100377036F036F036F
:102C40006F03900399036F03A203AB03B4036F03F5
:102C5000BD036F036F036F036F036F036F036F0396
:102C600060034FF4CA73A4F89C3294F87432002BBA
:102C700000F0AD80204694F878120BF075FB002828
:102C8000EFD1204694F8842204F520710BF07CFBF0
:102C9000002840F09380002120460BF065FB0028BF
:102CA00040F0A580062120460BF05EFB002840F096
:102CB000A880062220466B490BF066FB002840F0F6
:102CC000AA80032120460BF04FFB002840F0AD8086
:102CD0002046217D0BF048FB002840F0B080E18ABF
:102CE0002046090A0BF040FB002840F0C180204636
:102CF000A17D0BF039FB002840F0C4800021204664
:102D00000BF032FB002840F0C7802046217C0BF0FE
:102D10002BFB002840F0CA802046228AE1680BF095
:102D200033FB002840F0CC80237D5A0700F1DB8084
:102D300094F91430002B17DA002120460BF014FB15
:102D4000002840F02481204694F854100BF00CFB2E
:102D5000002840F026812046B4F85420216D0BF065
:102D600013FB002840F02781237D5B0600F13681AC
:102D700020460BF0E8FA07234FF4A06184F8603096
:102D8000201D0BF058FC04F595600BF0B3FA40F2EF
:102D9000C913A4F89C3294F8993204F10408012B69
:102DA00040F0438140460BF058FC10B12046FFF73D
:102DB0007DFD04F595600BF09DFAB4E640F29513A5
:102DC000A4F89C3294F87432002B7FF45AAF3B681D
:102DD00093F860300A2B3FF4A9AE234B00221978F8
:102DE000224B186803F036FA40F2994353E34FF44C
:102DF000CC73A4F89C3294F87432002B7FF44BAF60
:102E0000E5E740F29913A4F89C3294F87432002B51
:102E10007FF448AFDBE74FF4CD73A4F89C3294F80D
:102E20007432002B7FF445AFD1E740F29B13A4F836
:102E30009C3294F87432002B7FF443AFC7E74FF411
:102E4000CE73A4F89C3294F87432002B7FF440AF18
:102E5000BDE700BF132300206806002014230020D4
:102E6000162300208CFC200010230020D80800200E
:102E700040F29D13A4F89C3294F87432002B7FF436
:102E80002EAFA4E74FF4CF73A4F89C3294F87432B9
:102E9000002B7FF42CAF9AE740F29F13A4F89C32EA
:102EA00094F87432002B7FF429AF90E74FF4D0737D
:102EB000A4F89C3294F87432002B7FF426AF86E796
:102EC00040F2A113A4F89C3294F87432002B7FF4E2
:102ED00023AF7CE74FF4D273A4F89C3294F8743299
:102EE000002B3FF474AF002120460BF03DFA002880
:102EF000F0D1204694F840100BF036FA18BB20466B
:102F0000B4F84020E16B0BF03FFA28BB00212046CB
:102F10000BF02AFA48BB204694F848100BF024FA2C
:102F200060BB2046B4F84820616C0BF02DFA0028F5
:102F30003FF4FEAE4FF4D573A4F89C3294F874328B
:102F4000002BEED143E740F2A513A4F89C3294F88D
:102F50007432002BCDD13AE74FF4D373A4F89C32EE
:102F600094F87432002BCAD131E74FF4D473A4F82B
:102F70009C3294F87432002BC8D128E740F2A91390
:102F8000A4F89C3294F87432002BC4D11FE740F2AD
:102F9000B313A4F89C3294F87432002B7FF4CCAEB7
:102FA00015E74FF4DA73A4F89C3294F87432002BCE
:102FB0007FF4C9AE0BE740F2B513A4F89C3294F845
:102FC0007432002B7FF4C7AE01E74FF4DD73A4F831
:102FD0009C3294F87432002B3FF4F9AE0021204665
:102FE0000BF0C2F90028F0D1204694F85C100BF0E9
:102FF000BBF988B92046B4F85C20A16D0BF0C4F988
:1030000000283FF4B5AE4FF4DE73A4F89C3294F878
:103010007432002BEED1DAE640F2BB13A4F89C32F6
:1030200094F87432002BDFD1D1E640460BF015FB4B
:1030300000287FF4B7AECAE6B3F5F87F7FF49CAD05
:1030400094F87432002B7FF497AD201D0BF005FB34
:1030500000287FF491AD26E040F2E513A4F89C32FD
:1030600094F87432FBB1E02120460BF07DF9002882
:10307000F2D1002120460BF077F960B920460BF021
:1030800062F94FF48071201D0BF0D5FA4FF4F873FC
:10309000A4F89C32D4E74FF4F373A4F89C3294F86C
:1030A0007432002BE5D13B6893F860300A2B3FF473
:1030B00066ADC24B00221978C14B186803F0CAF8FC
:1030C00040F2A743E7E12A46BE4803F0C3F85FE5B4
:1030D000BD4B9DF807101B788B423FF4D0ACBB4B27
:1030E0001B788B423FF667ADB94B1B788B42FFF4E0
:1030F00062ADB34B186803F0ADF85CE540F2DE2238
:1031000093427FF46DAD94F8B034002B45D004F5B4
:1031100095600BF0EFF8002384F8383060E540F25A
:10312000D223A4F89C3294F8743233B3C0212046E1
:103130000BF01AF90028F2D1002120460BF014F907
:1031400098B920460BF0FFF8012304F5956084F848
:1031500038300BF0CFF84FF4A061201D0BF06BFA64
:1031600040F2DE23A4F89C32CDE740F2D323A4F84A
:103170009C3294F87432002BDED13B6893F86030B7
:10318000082B7FF430AD8D4B002219788C4B1868DA
:1031900003F060F840F2B9437DE1201D0BF05DFAC9
:1031A0000028B4D1E9E78223B4F88C2284F878327D
:1031B0000532C4F87C2204F5217104F520700BF06F
:1031C00081F894F88432042B4AD93A46812120466A
:1031D000FFF77CF8A4F89C727E4B9DF807201B78C3
:1031E0009A4240F030817C4B1D6095F87432012B7F
:1031F00040F0298195F86030082B40F024810023AD
:10320000A5F89C32744B1C689846B4F89C72002F49
:1032100000F00081A7F24F27BBB2122B00F29C8175
:10322000122F00F29981DFE817F03F019F0197010B
:103230009701B801C1019701CA01D301DC019701CF
:1032400097019701970197019701970197018801CD
:103250004FF40473A4F89C3294F87432002B66D0B7
:10326000204694F878120BF07FF80028F0D1204621
:1032700094F8842204F520710BF086F800284ED1D2
:10328000002120460BF070F8002861D1204694F808
:1032900086120BF069F8002863D1B4F88C1220462E
:1032A000090A0BF061F8002864D1204694F88C12CA
:1032B0000BF05AF8002866D12046B4F88C22D4F8D6
:1032C00088120BF061F8002866D1204694F8981215
:1032D0000BF04AF8002868D120460BF034F84FF480
:1032E000A061201D0BF0A7F904F595600BF002F822
:1032F0004FF40973A4F89C3294F89932271D012BDE
:103300006CD138460BF0A9F904F595600AF0F2FF8C
:10331000002384F86A300023A4F89C325CE740F272
:103320001123A4F89C3294F87432002B9FD1D8F862
:10333000003093F86030082B7FF44EAF1F4B002213
:1033400019781F4B186802F085FF40F2C643A2E0CF
:1033500040F21523A4F89C3294F87432002B8FD1DC
:10336000E5E740F21623A4F89C3294F87432002B5F
:103370008CD1DCE74FF40673A4F89C3294F87432D5
:10338000002B8AD1D3E740F21923A4F89C3294F899
:103390007432002B89D1CAE740F21A23A4F89C3278
:1033A00094F87432002B87D1C1E74FF40773A4F867
:1033B0009C3294F87432002B87D1B8E71023002098
:1033C000D8080020700400200F23002019230020BB
:1033D00018230020172300206806002038460BF031
:1033E0003CF900288DD1A2E7BF4B9DF807101B7850
:1033F0008B423FF444ABBD4B1B788B423FF602AF90
:10340000BB4B1B788B42FFF4FDAEBA4B186802F041
:1034100021FFF7E6A223B4F88C2284F87832043234
:10342000C4F87C2204F5217104F520700AF04AFFEB
:1034300094F88432042B3BD93A4681212046FEF78A
:1034400045FFA4F89C72AC4B9DF807201B789A426C
:103450001FD1AA4B1D6095F87432012B19D195F834
:103460006030082B15D10023A5F89C32A34D2C68A1
:10347000B4F89C32B3F5287F00F2F88040F2922233
:10348000934200F2CF80002B00F0FF800023A4F8CD
:103490009C3240F282430120338002B0BDE8F081CB
:1034A00040F24F23A4F89C3294F87432002B5FD082
:1034B000204694F878120AF057FF0028F0D12046F1
:1034C00094F8842204F520710AF05EFF002847D1A9
:1034D000002120460AF048FF00285AD1204694F8DF
:1034E00086120AF041FF00285CD1B4F88C12204605
:1034F000090A0AF039FF00285DD1204694F88C12A1
:103500000AF032FF00285FD12046B4F88C22D4F8AC
:1035100088120AF039FF00285FD120460AF013FF15
:103520004FF4A061201D0BF086F804F595600AF0B9
:10353000E1FE40F26123A4F89C3294F89932271DF1
:10354000012B53D138460BF088F804F595600AF04A
:10355000D1FE002384F86A300023A4F89C3272E77D
:103560004FF41473A4F89C3294F87432002BA6D153
:10357000D8F8003093F86030082B7FF464AF604BCC
:10358000002219785B4B186802F064FE40F2D343C6
:1035900081E740F25323A4F89C3294F87432002B54
:1035A00096D1E5E74FF41573A4F89C3294F8743281
:1035B000002B93D1DCE740F25623A4F89C3294F818
:1035C0007432002B91D1D3E740F25723A4F89C32F8
:1035D00094F87432002B90D1CAE74FF41673A4F814
:1035E0009C3294F87432002B8ED1C1E738460BF030
:1035F00034F80028A6D1BBE73B4B9DF807101B7899
:103600008B423FF43CAA394B1B788B423FF62EAFDE
:10361000374B1B788B42FFF429AF364B186802F00A
:1036200019FE23E7A3F293230D2B3FF62FAF01A240
:1036300052F823F00D372000B93720008D342000D8
:103640008D342000E9372000FB3720000D382000A2
:103650008D3420008D3420001F3820004938200090
:103660008D3420008D3420005B38200040F2B222DF
:1036700093427FF40BAF94F89932271D012B40F051
:10368000FC8038460AF0E9FF8AE094F8982294F822
:103690009A12530043F03003DBB2012984F87832E8
:1036A00008BF43F00103D4F8941208BF84F87832BD
:1036B000B4F88C320B44A2B90233C4F87C32D4F88B
:1036C0007C2204F5217104F520700AF0FBFD94F8CA
:1036D0008432042B1ED9002281212046FEF7F6FDFC
:1036E000D4E60433E9E700BF0F23002019230020AC
:1036F00018230020D8080020152300206806002089
:103700001023002040F29323A4F89C3294F87432E2
:10371000002B55D0204694F878120AF025FE002898
:10372000F0D1204694F8842204F520710AF02CFE92
:1037300000283DD1B4F88C122046090A0AF014FE84
:1037400000284DD1204694F88C120AF00DFE002876
:103750004FD12046B4F88C22D4F888120AF014FE17
:1037600000284FD194F89832002B5CD12046B4F851
:103770009422D4F890120AF007FE002869D120465E
:103780000AF0E1FD4FF4A061201D0AF054FF94F807
:103790009822002A66D13C4BE06E197802F05AFD5F
:1037A00004F595600AF0A6FD002384F86A306DE602
:1037B0004FF42573A4F89C3294F87432002BB0D1E6
:1037C0002B6893F86030082B7FF463AE2F4B0022F8
:1037D00019782F4B186802F03DFD4FF49C635AE6B0
:1037E00040F29723A4F89C3294F87432002BA1D1B4
:1037F000E6E74FF42673A4F89C3294F87432002B59
:10380000A0D1DDE740F29923A4F89C3294F87432F9
:10381000002B9ED1D4E74FF42773A4F89C3294F880
:103820007432002BCCD0002120460AF09DFD0028E8
:10383000F1D1204694F886120AF096FD002895D022
:1038400040F29D23A4F89C3294F87432002BF0D1FE
:10385000B6E74FF42873A4F89C3294F87432002B26
:1038600084D1ADE7012A9BD104F595600AF042FDB1
:1038700040F2B223A4F89C32FDE638460AF0EDFE91
:1038800000287FF4FEAE9BE7F63B002010230020CB
:10389000D808002070B504461E4694F860301046E3
:1038A000082B1FD194F86A500123EDB9B4F86810C1
:1038B00084F86A30023189B2A4F86810A4F886123C
:1038C000C4F888220AF046FA084BA4F88C02224673
:1038D0001978074884F8986284F8995202F0BAFC83
:1038E000284670BD8125FBE71D46F9E71623002019
:1038F0007004002070B504461E4694F860301046EF
:10390000082B2AD194F86A50012345BBB4F86810FB
:1039100084F86A3002319DF8183089B2A4F8681032
:10392000A4F8861284F89A32C4F888220AF012FAAF
:10393000049BA4F88C02C4F894329DF814302246FB
:1039400084F89832074B08481978C4F8906284F8D4
:10395000995202F07FFC284670BD8125FBE71D4689
:10396000F9E700BF1523002070040020812810B55E
:103970000C461ED1104A05211368002023F02003B5
:10398000136052F8203C23F0200342F8203C082228
:1039900000F066FEFF22094B1A600022084B1A70E5
:1039A000084B24B1012114461970204610BD1C702B
:1039B000FBE74FF0FF34F8E720940D4080900D4076
:1039C0001A23002020230020431E022B2DE9F74F4D
:1039D000804600F29E80574D95F80090B9F1000F97
:1039E00040F0A48001232B70534B544E1B78544F4E
:1039F000002B00F086803368524C43F02003336084
:103A0000FF233B6000F0C2FB241A00F0BFFBC4425E
:103A10001ED400234C4CDFF834A1236023713B609B
:103A200000F0B4FBAAEB000A00F0B0FB1AEB000FA9
:103A300011D44FF0FF0A4FF0000B1420C7F800A07C
:103A400000F096FB336823F02003336000230DE081
:103A500000F0FCFCD9E700F0F9FCE5E70120019358
:103A600000F086FB019B0133FF2B48D03A68D9B2A6
:103A70005245F3D03B68FF295FFA83FA1BD0BBF1B4
:103A8000030F11D91BF0010F0ED14FEAD902A35C2D
:103A900008294FEA4303DBB288BF43F0010309F171
:103AA0000109A3545FFA89F90BF1010B5FFA8BFB53
:103AB000BBF1550FCAD1B9F1270F22D9627823780B
:103AC0001344A2781344E27813442279DBB29A4279
:103AD00017D13368B8F1020F23F0200333604FF0A1
:103AE000FF033B6018D0B8F1030F21D00022A0786B
:103AF0002A7000F07F03E07800EB032013E0194602
:103B0000B8E7336823F020033360FF233B600023D2
:103B10002B704FF0FF3006E02378607800EB032035
:103B2000002380B22B7003B0BDE8F08FFF20FAE7CE
:103B30000020F8E71A2300202023002000940D40E5
:103B400080900D4000E0FFFF1B23002071FDFFFF70
:103B50002DE9F34100F082FC00F074FD00F0D8FC88
:103B600000F0CAFA0AF065FD00F064FD00F0C6F846
:103B700001200AF03AFC02F013FB00F05BFC00208D
:103B800000F082FB012000F07FFB4849002000F09C
:103B90003BFC02F02FFC0AF061FC04200AF025FC3B
:103BA00043480AF089FC43480AF086FC00F042FAD8
:103BB000002002F0CBFC01F05DFA00213E4802F04B
:103BC00071FB02F0E3F90AF03EFC00F0BFFD00F0EB
:103BD000D7FD07F089FE0821684601F0F1FA9DF84B
:103BE00006309DF80760354C46EA03266B4603CB4A
:103BF00020606160324801F0DDFC00272546DFF8D7
:103C0000F880404614F8011B013701F0D3FC072F60
:103C1000F7D12C4FE9792C4801F0CCFCFC6A4AF62C
:103C2000CD310220A04731460320A0471A210120B0
:103C3000A047694608227B6B0B209847234801F078
:103C4000B9FC234B18680AF037FC224801F0B2FC9B
:103C5000214B18680AF030FC204801F0ABFC204BE7
:103C600018680AF029FC1F4A2B6813606B685360C0
:103C700007F064FB00211C4802F014FB00211B48E4
:103C800002F010FB1A4B01219B68812098470AF033
:103C9000A5FC18480AF098FC00F0D2FB02200AF0BC
:103CA000A4FB00F0D3FB02F093FAFAE7AD63200027
:103CB000ADFC2000C9FC2000B8040020013C00201D
:103CC000EEFC200050FB2000FD07210012FD20002B
:103CD00018FC200019FD200030FC200020FD2000F1
:103CE0004CFC2000E43100206C050020E80400209A
:103CF000D8FA20007CFC20000CFD200008B500F064
:103D00003DF90022014B1A7008BD00BF212300209D
:103D1000024B1A781043187000F054B92123002088
:103D2000034A137823EA0000107000F04BB900BF7B
:103D30002123002008B50B4B1B7803420FD020280D
:103D40000BD004280BD10220074B80211A7800F0F9
:103D5000A3FC20EAE07000B208BD0520F4E74FF0B4
:103D60000040F9E72323002022230020802810B5FB
:103D70000C4605D0B0F5807F29D04FF0004025E0FB
:103D80008B1E222BF9D8184A136823EA010313600B
:103D900052F8203C23EA010342F8203C8A0604D56D
:103DA00001220521002000F05BFC630704D50122FD
:103DB0000221002000F054FC00F066FC30220B4B86
:103DC0001A700B4B187820441870002010BDC8B230
:103DD000202803D005D810F0EF0FCED1034B187078
:103DE000F4E73028FAD0C8E720940D4022230020C1
:103DF0002323002018B1012804D000207047034B72
:103E000018687047024B1878704700BF20900D402B
:103E10002423002010B5094A0020137801331370C1
:103E2000074B197802F016FABDE810400549002347
:103E3000054A0968054802F0DFB800BF24230020C6
:103E4000F73B002098060020153E20007806002051
:103E5000812810B50C462BD0B0F5807F3AD0802851
:103E600024D102F095F91D4B1D4A187013680321E7
:103E700023F00803136052F8203C002023F00803CD
:103E800042F8203C52F81C3C23F0080342F81C3C4A
:103E900052F8183C43F0080342F8183C042200F0A2
:103EA000DFFB032200210F4800F084FB012408E01F
:103EB0000D4B1A6839B142F0080200201A6000F078
:103EC000EBFA204610BD22F0080208461A6000F006
:103ED000F1FAF6E7054B1960E8E700BFF73B002071
:103EE00020940D40F13E200010940D4098060020D3
:103EF00008B50F480AF0B1FBC8B108210C480AF018
:103F00009AFB0C4B196849B100220B4B1A700B4BF2
:103F10001B6843B90A4A0B4802F06EF8BDE8084036
:103F2000094802F0E3BA074802F0A8F8F6E708BD2E
:103F300070060020980600202423002020900D40C9
:103F4000153E200078060020D8FA2000084A1368A1
:103F500023F00403136052F8203C43F0040342F8BA
:103F6000203C0022034B1A600122034B1A70704759
:103F700020C40D4010C00D40252300200D4A0E49DD
:103F8000136823F0C003136052F8203C43F0C003D1
:103F900042F8203C0022094B1A600B6823F0100302
:103FA0000B6051F8203C43F0100341F8203C044BD7
:103FB0001A60704720A40D4020C40D4000A30D409E
:103FC00040C00D4010F0020218BFFF22084B1A60DB
:103FD00010F0040218BFFF22064B10F001001A6017
:103FE00018BFFF22044B14BF1A601860704700BF4F
:103FF00000A20D4000A10D4040C00D40044B1B68C5
:10400000C3F3072013F4704F04BF1030C0B27047E1
:104010001C300D40064B1868C00910F0060F03BF96
:1040200000F00700C0F1020040034FF40040704769
:1040300014300D402DE9F047482488B0FFF7DEFF2B
:10404000164B06461F68A3689847636880469847E2
:104050000446FFF7DFFF054600F094FA814600F0C2
:104060009DFA824600F04AFAAD0A07F00103A40A5D
:10407000C7F34007CDE905A003934146CDF8109062
:1040800002970195009406F00F03C6F30712044847
:1040900001F090FA08B0BDE8F08700BF1C300D4079
:1040A00043FD20002DE9F84300F070F81049024666
:1040B000D1E90045AC46A04238BF05F1010C63468A
:1040C000C1E900230B48D0E90089B8EB040169EB92
:1040D00005048E1844EB0C07C0E9006701F0F6FEFA
:1040E00018B1BDE8F84301F075BEBDE8F88300BF24
:1040F00060060020580600200F4B104A1A6053F843
:10410000042C42F0050243F8042C53F8042C42F02E
:10411000020243F8042C0A4A136843F001031360B7
:104120000022084B1A60042243F80C2C012243F8A9
:10413000082C0F22DA62704714E000E047E8010023
:1041400008200D400C000340034BD3E90023100A64
:1041500040EA0360704700BF60060020034BD3E9CC
:104160000023D00B40EA4340704700BF58060020B0
:10417000054B186053F81C2C1C3B42F001021A60DE
:104180001A68D207FCD4704728000340064B186811
:104190005A6808331B681B0443EA0223034A03439B
:1041A000106843EA0060704740500D404C500D408D
:1041B00010B50446114A1368DB07FCD50AF052F922
:1041C000FFF7E4FF231A062BD8BFC41D0C4B220EA9
:1041D0001A60C4F3074243F8042CC4F3072243F8DF
:1041E000082CE2B243F80C2C0AF038F9054B912068
:1041F0001C60BDE8104000F04FB900BF50500D40AA
:104200004C500D409C060020002208B5054B912023
:104210001A6000F05DF9912000F04CF9BDE808400B
:1042200002F064B89C0600202C23154A70B503FBED
:1042300000234FF6BF72DC680546236C626413F0FE
:1042400050020DD00F4EA369DB0600D570BD56F8A5
:1042500025301BB12068C0B29847F4E72368F2E725
:1042600013F4D06FF2D04FF440732363FF236360E5
:10427000E36AE262E362236B43F001032363E5E751
:10428000E8FA2000A00600202DE9F04F012806469C
:1042900085B000F2AA802C224243554FBC1894F9F5
:1042A0002090B9F1000FC0F2A08094F92230002BC9
:1042B000C0F29B804FF000084E48BA58016894F94C
:1042C00021A00A434C4902600A686068E56802431D
:1042D0000A604A68A06894F923B002434A602269E0
:1042E0000AEBC901C5F8C88F116094F82310D8B241
:1042F000227D0393CDE9010100F0BCF9DDE9010164
:10430000082200F0ADF9039B3C491A0301235058E1
:1043100003FA0BFB4BEA000050504FEA093959F8F9
:10432000012003FA0AFA4AEA020249F8012050225F
:10433000AA63AA6B94F9240042F4D062AA63022211
:104340006A634FF440722A63A26940456A62E26977
:10435000AA624FF07002EA620D4614DB94F9251050
:10436000274A41EAC0041460020354598B40234396
:104370005351C9B24246C0B200F072F9214A1368E3
:1043800043F4004313602C2303FB067393F9264088
:10439000002C1BDB93F827905FFA84F80122494632
:1043A000404693F927A000F065F9012324036259E0
:1043B00003FA0AF31343635108224946404600F0CA
:1043C0004FF9104A136843F4804313602C2000FB1C
:1043D0000676F26896F82800136B43F00103136326
:1043E00005B0BDE8F04F00F057B805B0BDE8F08F5C
:1043F000E8FA200028200D402C200D4020940D408C
:1044000004410D4030D0004001289CBF014B43F8CF
:1044100020107047A0060020012808D82C22044B49
:1044200002FB0030C3689A699206FCD41960704799
:10443000E8FA20000022014B1A60704700500D403E
:104440000822014B1A60704700500D40A022024B19
:104450001A6050221A60704700500D40074B084AFE
:104460001A60084B80321A60074B80321A60074B83
:1044700080321A60064A074B1A607047AC0600206B
:1044800000E100E0A8060020B0060020B4060020ED
:104490000020200008ED00E0054B41091A680123C7
:1044A00000F01F0003FA00F042F82100704700BF3F
:1044B000AC060020054B41091A68012300F01F00DB
:1044C00003FA00F042F82100704700BFA806002060
:1044D000054B41091A68012300F01F0003FA00F0A0
:1044E00042F82100704700BFB4060020024B186854
:1044F000C0F38150704700BF04200D4008B5FFF79E
:10450000F5FF024B53F8200008BD00BF40FB200020
:1045100038B5164D164C2B68012223F040032B6052
:104520002368062123F040030320236000F098F85D
:104530002B68012223F080032B602368072123F0DE
:1045400080032360032000F08BF80A4B0A4A0B49D2
:104550001A600B4A134610680842FCD11A685101D0
:10456000FCD41A685201FCD538BD00BF20C40D40F0
:1045700000C40D4000200D400101020000000101B7
:1045800004200D40034B04481B6803F00703184147
:10459000704700BF04200D400048E801034B044869
:1045A0001B68C3F302231841704700BF04200D406D
:1045B0000048E801024B02EBC10243F822007047B9
:1045C000B8060020F8B507460D460024084E06EB55
:1045D000411647FA04F3DB07E1B204D556F824305C
:1045E0000BB1284698470134082CF2D1F8BD00BF22
:1045F000B80600202DE9F0410B4B0C4F0503EE5897
:10460000EC594FEAC00824FA08F4014646EA0400CF
:10461000C0B2FFF7D7FFE4B2054BF6B204FA08F4D4
:10462000EE50EC51BDE8F08118940D4018970D4004
:104630001C940D4080220021014809F075B900BF8B
:10464000B8060020034B044A1A60044B803A1A60F3
:10465000704700BF3807002080400D403C07002015
:10466000034B01EBC0011B6843F82120704700BFDA
:1046700038070020034B01EBC0011B6843F82120E1
:10468000704700BF3C070020024A136843F0300324
:104690001360704700700D400E2870B506460BD1B0
:1046A000134B1C6844F0020018601248056825F09E
:1046B0003F0343F0010303600F48036823F0FF0347
:1046C0001A43114331430D4A016013681B06FCD5A0
:1046D0000B4B0C4A1B68106803F0FC0343EA0023F1
:1046E0000E2E18B201BF034B1D60014B1C6070BD44
:1046F00034000144F486084008700D4000700D40FD
:104700000C700D4010700D4010B58F20064CFFF757
:10471000DFFE8F20FFF7CEFE206818B101F0DAFD32
:104720000023236010BD00BF40070020064A136825
:1047300043F002031360536843F00203536093682D
:1047400043F002039360704748200D4007B5FFF720
:10475000EDFF0A4B1A6842F002021A600022019231
:10476000019A0F2A06DD1A6822F002021A6003B0CD
:104770005DF804FB019A0132F1E700BF54200D40BF
:10478000064A136823F002031360536823F0020300
:104790005360936823F002039360704748200D40F4
:1047A0000B4B1A689207FCD41B685B065FBFED22B7
:1047B000084B1A601A60084B1B6813B1EF22054BB7
:1047C0001A60064A0120137803F07F0313707047C4
:1047D0004C860840388808402C8608402823002052
:1047E000044B186800F02200A0F120035842584101
:1047F000704700BF4C860840024B186800F040002C
:10480000704700BF4C860840084B93F90020002AEF
:1048100009DBED21064A11601160E32111601A786D
:1048200062F07F021A700120704700BF2823002029
:1048300038880840A0F10B01CBB20F2B10B504460D
:1048400013D80B4B1B6813F03F0302D0FFF7A8FFF0
:104850000123084A01EB81010B3111600BB1FFF715
:10486000D3FF054B60B21C7010BD4FF0FF30FBE76B
:10487000488608403C8608404E06002010B50C468D
:10488000002900F08680102800F28580DFE800F023
:1048900009101B22243B44575C727683837B7D5432
:1048A0007F003E4B1B68003B18BF0123236024E0C0
:1048B00005223B4B1B6803F07F030B3B93FBF2F39A
:1048C0000B33DBB2F2E7374B1A68043B1B6843EA51
:1048D0000223EBE7344BF7E700230B60334B344AFA
:1048E0001B6803F001030B601268900644BF43F09D
:1048F00002030B602F4B1B780BB900200BE00B68F9
:1049000043F00403D2E700202B4B08601B78002BF8
:10491000F3D001230B6010BD284B29491A680023EE
:10492000D2B201EBC3000079904202D851F8333083
:10493000BCE701330E2BF4D16FF01703B6E7214B20
:104940001B685BB2493BB1E71F4B1B6899060FD14F
:10495000FFF75AFF01231D490A68D207FCD51C4AFC
:104960001168493949B20BB1FFF71AFF2160C4E75A
:104970000023F0E7174B93F9003097E7164B1B78AD
:1049800003F07F0392E70B2390E71A238EE70723B8
:104990008CE70220BFE70120BDE700BF2C8608405E
:1049A0003C860840CC850840D485084000860840F5
:1049B00024860840272300204F0600204086084018
:1049C00088FB2000588608404886084064860840D6
:1049D00060860840292300202623002008B50B4BC1
:1049E0001B6899060FD1FFF70FFF012308490A68DA
:1049F000D207FCD5074A1168C1F300110BB1FFF7CC
:104A0000CFFE084608BD0023F0E700BF48860840F7
:104A1000648608404C86084038B505460C46134A63
:104A200013689B07FCD4124B93F90030002B01DB79
:104A3000FFF7EAFEEE220F4B691E1A601A60A21CF5
:104A400043F8102C2144022000F02CFB0A49013CC1
:104A500041EA0411022000F037FB022000F03EFB87
:104A6000022000F053FB002038BD00BF4C860840F8
:104A7000282300203888084002C001C0F8B5224B26
:104A800093F90030002B18DBFFF780FB0446FFF79B
:104A9000BBFEC4F1FF2404F57F04F634FFF776FB78
:104AA000C442FBD40126194B1B7843B9184C236828
:104AB000990609D502210846F8BD0026F3E7FFF75D
:104AC0008DFF0028F2D1F5E7E9230427114D2B6073
:104AD00023689A0703D4013F17F0FF070BD123681F
:104AE0009B070CD4EE2301212B602B60002EE2D01B
:104AF000FFF756FEDFE70620FFF73AFBE8E72168FD
:104B000011F00201FBD1F1E7282300204F0600201D
:104B10004C860840388808400B280DD1082A0DD152
:104B200061B1074B074A083111F8010D43F8040B36
:104B30009342F9D10020704701207047022070474E
:104B4000A8850840C885084070B52F4E02463068D9
:104B500010F0400008D02D4D2868040605D5ED2240
:104B600000202B4B1A601A6070BDC0B20428F6D921
:104B700002388842F3DCC4B2032C1ED12B681370B8
:104B80002B6853702B6893702968224B493949B2BE
:104B900019702B68204D18062B70E0D589B20420BF
:104BA00006F078FE2978032001F07F0106F072FEFE
:104BB0001A4B1B78CBB12046D6E7111903200139D7
:104BC00000F078FA164B611E032043EA011100F051
:104BD0007BFA032000F082FA032000F097FA03200A
:104BE00000F0A0FA0028FAD1CEE733685A06E2D5E1
:104BF00033681B0603D50B4801F06CFBDBE7ED22A5
:104C0000034B1A601A60D6E74C8608402888084093
:104C1000388808402923002026230020272300204D
:104C200002C0010C900400201E4B1870002830D0E8
:104C30001D4A13681B03FCD51C4B1A6842F0020284
:104C40001A601A6842F001021A601A685007FCD50F
:104C50001A6822F001021A601A685107FCD41A6817
:104C600042F002021A601A6842F001021A601A68E1
:104C70005207FCD50E4A8D20136823F004031360FD
:104C8000D2F8A83102F5D47223F004031360FFF7C1
:104C900011BC074A8D20136843F004031360FFF72B
:104CA000FBBB00BF2723002004200D4004880840E0
:104CB0008C86084008B507285FD8DFE800F0040FAD
:104CC0001A2124404659012903D1FFF79DFD0020F8
:104CD0003AE0002953D1FFF763FDF8E7A1F10B0398
:104CE0000F2B4CD8C8B2FFF7A5FD0130EFD1032040
:104CF0002AE0244BCAB2C1F307211A605960E6E7E3
:104D0000214BCAB2F7E731F0070338D11F4B11F03E
:104D1000010F1A68C1F3800014BF42F0010222F0B3
:104D200001021A601A4B11F0020F1A6814BF42F008
:104D3000200222F020021A60FFF776FFC7E731F069
:104D400001001CD1134B197008BD01F118031F2B72
:104D500015D80D23104A52F83300814205DC02EBCE
:104D6000C3031A790D4B1A60B1E7013BF3D2AEE7EA
:104D70000B4BC9B249311960A9E70120E4E70220D1
:104D8000E2E700BFC8850840D0850840008608409B
:104D9000248608404F06002088FB200040860840FB
:104DA00058860840F8B5294F3D7815F001054BD1DC
:104DB0000124F822264B7F261C605C609C60A3F5D2
:104DC0009323A3F514731A600922C3F890211522C6
:104DD0001A670B22703303F59B23C3F83C21402252
:104DE00003F59E73A3F59B23A3F5F0731A601A686D
:104DF00042F020021A60D52243F81C5CDE62DA61C0
:104E0000144B1878FFF716FD134B8E201E60FFF72A
:104E100043FB022000F06EF91049022000F04AF92D
:104E2000032000F067F90D49032000F03BF90C4B1B
:104E30001878FFF7F9FE0B48294601F033FA2046AF
:104E40003B7823433B70F8BD0020FCE7282300207B
:104E5000A8200D404E06002094860840288808406F
:104E6000272300209004002038B50388044653B35C
:104E700040F20342934233D11B4B18781A4638BB99
:104E8000822923D1137873B906F0AAFC06F03CFC02
:104E90008021FFF759FE002805DD80B206F018FCDE
:104EA000124B1B699847124B1A7852060BD50022F9
:104EB0001A70104B1D68FFF773FCFFF773FFAB060A
:104EC00001D0FFF7A1FC40F20343238001200AE058
:104ED0001B78002BFAD0064B1B785806F6D5CFE787
:104EE00000230380032038BD272300204CFC200032
:104EF00028230020488608400B282DE9F0470C465F
:104F00000FD1082A79D1002977D03D4B3D4A4C1E5C
:104F100053F80419934204F8011FF9D10020BDE8A9
:104F2000F0870C2867D1042A67D1002965D0364B59
:104F300036491A68DFF8E48022F007021A600A682E
:104F4000334F42F008020A60D8F800003A681D6842
:104F5000DFF8CCE0DFF8CCC025F070051D60DEF88E
:104F60000050DCF80060C0B2120240EA066092B263
:104F700002434FEA0549274809F47F09D0F800A009
:104F800042EA09061A685FFA8AF522F0070242F03F
:104F900001021A600A6842F008020A60D8F800208C
:104FA0003F68196821F0700141F010011960DEF8C6
:104FB0000010DCF800C0D3B23A0243EA0C6392B2AC
:104FC00013430A04016802F47F0243EA02085FFA0D
:104FD00081F9FFF7DBF8B6EB080165EB0905ED0396
:104FE00007460023C8030C4A45EA514108F014FA69
:104FF0003F1A276092E7012091E702208FE700BF68
:10500000C4850840A48508401088084004880840EA
:10501000188808401C8808400048E80114880840A7
:10502000248808402088084008B5054B1B7813B930
:10503000044801F04FF90022034B1A6008BD00BF7D
:10504000272300209004002034880840064B07489E
:105050001A68042A1FBF06490A7842F040020A7003
:1050600000221A6001F036B92C8808409004002014
:105070002823002008B5094B40221846002108F0DB
:1050800053FC0121064A116050602E20FFF704FAFC
:10509000BDE808402F20FFF7FFB900BF0000002047
:1050A00004F00F4003289EBF014B000119507047C8
:1050B0000000002003289EBF024B03EB001041605C
:1050C000704700BF0000002003289EBF024B03EB87
:1050D00000108160704700BF00000020032806D840
:1050E0000123034A03FA00F0116808431060704777
:1050F00028F00F40032806D80123034A03FA00F0E2
:10510000116808431060704720F00F40032806D84C
:105110000123034A03FA00F0116808431060704746
:1051200014F00F4003289FBF044B03EB001080686E
:1051300000F0070088BF0020704700BF000000207B
:105140004FF0FF32014B1A60704700BF04F50F406B
:105150000122014B1A6070474CF00F4010B59020AF
:10516000064CFFF7B5F99020FFF7A4F9206818B1B5
:1051700001F0B0F80023236010BD00BF44070020F9
:1051800070B50E4D04462E784EB9C0213046FFF75B
:1051900043F90D213046FFF73FF901232B70002022
:1051A000E1B2FFF739F90A2C05D1C0210020FFF741
:1051B00033F900232B70204670BD00BF2A23002046
:1051C00070B5184B1A78431E52B101F52011164ADA
:1051D000273191421AD011F8010903F8010FF8E7BD
:1051E000124A1278122AF0D1114A12784B2AECD1C5
:1051F0004C0804F520120C4D2732AA4207D1002397
:1052000001F5201120442731A34205DB70BD12F8BF
:10521000016903F8016FF0E7CA1A1278013300F848
:10522000012BF1E72B002800270028002A00280086
:105230002900280000200149FFF7E6B809552000A1
:105240002DE9F74F03880090002B4BD0B3F5A57FD5
:1052500040F0088182294FF0010540F00881DFF815
:1052600034A2844BDFF83882BAF800401D7018F879
:105270000430D146432B47467F4E44D1DFF810B26D
:10528000BBF800309C423ED21B1B052B3BDD08EBDC
:105290000403062218467949019308F039FA019B64
:1052A000024600282FD148F804009880744B754CB2
:1052B0003080ABF80000AAF800001D7014F8010B54
:1052C000019209F007F9019A01320D2AF6D1002561
:1052D0006D4B1D807DB16D4B1B6803B1984704F089
:1052E000C5FA08E0644A1380694A1380694A13804A
:1052F0000122634B1A704FF4A5730120009A1380AA
:1053000003B0BDE8F08F32880025944202D15E4B95
:105310001D80F0E73CD32B4640F2235B40F2145E45
:105320004FF0C0084FF0DB0A5B4807EB040C5C450C
:1053300002D875455AD90025002040F2145E4FF07E
:10534000C0084FF0DB0ADFF858C1534C81B28A42E3
:105350003AD9754537D81CF8011B002B64D0DD29DC
:105360005DD105F804A00135ADB200230130EDE7B1
:10537000A9B113F8011BDD2905D105F8008001351D
:10538000ADB2002119E0DC29FBD105F800E0F6E719
:1053900040F2155C4FF0C00E4FF0DB083E483B5D1D
:1053A000DB2B16BF002101212B5404F1010318BF90
:1053B00001359BB218BFADB23B440134A4B2A24246
:1053C00002D96545D4D1002540F22453013292B26E
:1053D0009A4204BF002333802D4B18BF328032889D
:1053E00019888A423AD1A9F8002071E71CF8011BFC
:1053F00073B1DD2907D105F800A00135ADB2002356
:105400000134A4B293E7DC29F9D105F80080F4E770
:10541000DB291BBF295401350123ADB2F0E7DC299C
:10542000A3D105F804809EE7DB291BBF2955013570
:105430000123ADB29AE701339BB2A3424FF00000C3
:1054400000D103469942CED0F85CC028F3D113486E
:105450003380A9F8002000F03DFF39E7104640F204
:105460002454EEE70023009A0320138048E72846DF
:1054700046E700BFFC3B00201C1C002015FE20005E
:105480004F2800201CFE2000D831002048070020B3
:105490001A1C0020181C0020EC310020A004002061
:1054A0002B230020014B1860704700BF48070020E5
:1054B000F8B5C02009F00EF80025104C104E114F21
:1054C0003288ABB29A4204D8C02009F003F8002019
:1054D000F8BD3C2B08BF3C6814F8010BC02807D16D
:1054E000DB2008F0F7FFDC2008F0F4FF0135E7E7E8
:1054F000DB28F9D108F0EEFFDD20F5E7EC310020E4
:10550000D83100200C37002038B5244B1A781C46BF
:10551000022A07D0032A27D1C02804BF01221A700B
:10552000002030E000F12402D2B2012A06D9032281
:105530001A701B4B1A881B4B1A80F1E7012323704A
:1055400040F22455174B1A88511C89B2A94208BF52
:105550000021198014491D8809888D4208D1032231
:1055600022700F4A1288E7E7DB28E9D10223E6E739
:105570000E4C5428A05407D1635C432BD0D10C4867
:1055800000F0A8FE012038BDC028C9D10448048815
:105590009442D1D0A142F2D10280F0E74F280020FE
:1055A0001C1C00201A1C0020181C00202B2300208B
:1055B000A00400200FB407B504AA52F8041B044845
:1055C000019200F035F803B05DF804EB04B07047C9
:1055D000B00400201FB50C461146074ACDE900046F
:1055E000029202A81A46CDF80CD000F021F8002251
:1055F000009B1A7004B010BD5BE5200070B5054635
:105600000C460A4E102C07D874B122462B686868E5
:105610000649BDE870401847102231462B6868687B
:10562000984710B9103CEDE7204670BD84FE20007D
:105630002DE9F04F0746154600268FB00791079BCE
:105640001B78002B00F09C83079B1A781C460133C3
:10565000002A00F08583252AF7D1079B9C4205D0BC
:1056600081E323784644002B00F08A836278631C30
:10567000002A00F085830024184610F8012B1946F3
:105680002B2A17D00BD8202A17D0232A18D0A2F102
:10569000310CBCF1080F3FD84FF0000A18E02D2A5A
:1056A00004D0302AF3D144F0100401E044F00104A6
:1056B0000346E1E744F00604FAE744F00204F7E7A2
:1056C00044F00804F4E70A2101FB0A2AAAF1300A8F
:1056D000194613F8012BA2F130000928F3D90B78F1
:1056E0002E2B37D14A784B1CA2F13000092829D83B
:1056F0004FF000081A781946A2F13000092803F18A
:10570000010319D90B786C2B6FD14B786C2B24D1FA
:1057100044F08004023123E02A2A0AD1D5F800A0FF
:105720000146BAF1000F05F10405B8BF44F00104C9
:10573000D5E74FF0000AD2E70A2101FB0828A8F1BB
:105740003008D7E72A2A04D1D5F800800231043581
:10575000D8E719464FF0FF38D4E7013144F0600430
:105760000B78782B0CD8572B4BD8472B08D8402BCD
:1057700000F29080002B00F00383252B00F0D380F3
:105780004B1C079304F4E063B3F5A06F00F0C982EB
:1057900000F2CC80B3F5407F00F07282B3F5806FE9
:1057A00000F03682B3F5807F7FF449AFB8F1000F87
:1057B000ACBF24F010044FF0010814F4005204F0C0
:1057C000E003069200F0EA80402B00F0E08000F257
:1057D000C280002B00F0DE80202B00F0C78000226A
:1057E0000023CDE900230023CFE0682BB8D14B780C
:1057F000682B02D144F020048CE7013144F04004CE
:10580000AEE7583B202BBBD801A252F823F000BFD3
:10581000D95820008157200081572000815720004F
:105820008157200081572000815720008157200098
:105830008157200003592000815720000F59200074
:10584000C1582000EB582000DF582000F7582000F6
:1058500081572000C1582000815720008157200027
:10586000815720008157200021592000CD58200069
:105870001B59200081572000815720001559200016
:1058800081572000C75820008157200081572000F1
:10589000D3582000413B062B3FF672AF01A252F8CD
:1058A00023F000BF095920008157200081572000B4
:1058B00081572000F1582000E5582000FD582000B5
:1058C00044F424545CE744F4106459E744F48854E5
:1058D00056E744F4C85453E744F4B24450E744F460
:1058E00000744DE744F484444AE744F4024447E733
:1058F00044F4424444E744F4813441E744F4A1349D
:105900003EE744F4C1343BE744F4E13438E744F47F
:10591000A06435E744F4806432E744F440742FE730
:1059200044F4E0642CE744F4C06429E7B3F5C06FA5
:1059300007D0B3F5E06F7FF482AE2B6804351E60AC
:105940007DE601223B68A94978689847002840F025
:105950001582013673E6602B1CD0802B7FF43FAF9D
:10596000073525F00705F5E8022303E095F9002047
:10597000D3170435002A73F10001BFF632AF52424B
:1059800063EB4303CDE900230123039317E0B5F94B
:105990000020EDE72A680435D317EBE7402B00F031
:1059A000B08000F29A80002B00F0AD80202B00F038
:1059B000A180069B002203930023CDE9002304F479
:1059C000C053B3F5805F00F0D580B3F5C05F00F041
:1059D000D680B3F5006F00F0B78000230DF1360BD1
:1059E0000493049B41F20802984588BFA8EB030882
:1059F00041F6080304EA030198BF4FF00008914202
:105A00001A4604D1B8F1010F38BF4FF00108049BCA
:105A1000914203EB080040F0CC80DDE90023134302
:105A200000F0C780724914F4804F724B4FF00209A6
:105A300018BF0B46069A72B1039A002A40F0BD8047
:105A400004F00602022A00F0BC80062A6A4A04BF5B
:105A50004FF00109134609EB0002924594BF4FF045
:105A6000000AAAEB020A14F00102009204D1E10636
:105A700040F1AB80D0449246B9F1000F07D04A46BE
:105A800019463C687868A047002840F07781444672
:105A9000049B1E44102C5949D7E9003000F29F8026
:105AA0002CB1224655499847002840F06781594655
:105AB0003B68049A78684E449847002840F05E811D
:105AC000009B4644002B00F0D48051463846FFF737
:105AD00095FD002800F0CD8050E1602B13D0802B85
:105AE0007FF467AF073525F00705F5E80223CDE918
:105AF000002304E02A780023CDE900230435069B27
:105B000043E72A88F7E72B68002219460435CDE9D8
:105B10000012F4E7DDE904010A22002307F07CFC0F
:105B2000DDE9040130320BF8012D00230A2207F0D1
:105B300073FCCDE90401DDE904231343EAD10DF13F
:105B40003603A3EB0B034BE7DDE900230DF1360B26
:105B5000CDE90423EFE702F0070130310BF8011D16
:105B6000D10841EA4371D8080A46034652EA0301C4
:105B7000F1D1E4E70DF1360BDDE90023F6E7204B28
:105B800014F4804F0DF1360B1E4908BF1946DDE9AC
:105B9000002352EA0300D2D002F00F00085C4FEA63
:105BA000131C0BF8010D100940EA0370024663460E
:105BB000EFE74FF000094B463CE74FF00109124B6D
:105BC00049E74FF00109114B45E751463846039329
:105BD000FFF714FD039B00283FF44EAFCEE01022E8
:105BE0009847002840F0CA80103C53E782FE20000E
:105BF00071FE200074FE200079FE200094FE20003B
:105C000060FE20004FFE200077FE20001EFD2000D9
:105C1000D5F800900435B9F1000F2CD04B469B46C7
:105C20009BF800200133002AF9D1ABEB090BB8F146
:105C3000000F02DBC34528BFC346DA4594BF4FF0CF
:105C4000000AAAEB0B0A14F0010406D151463846AB
:105C5000FFF7D4FC002840F091805A4649463B6843
:105C600078689847002840F089805E44002C7FF4D3
:105C70002CAF5644E3E44FF0060BDFF81491D6E75F
:105C8000414B424A14F4804F08BF9C460DF1330348
:105C900018BF944600211A462868043550EA010EC0
:105CA00030D1D21A08BF30224FF0780104BF03F878
:105CB000012C03F1FF3303F8011C4FF0300108BF42
:105CC000012203F8021C232102F10309CA4594BFF3
:105CD0004FF0000AAAEB090A14F00104A3F103082B
:105CE00003F8031C05D151463846FFF787FC00280E
:105CF00044D14A4641463B687868984700283DD1E0
:105D00004E44B3E700F00F0E1CF80EE04FEA1118F6
:105D100003F801ED4FEA101E4EEA017E704641463F
:105D2000BCE7BAF1010F38BF4FF0010A2B6814F03D
:105D3000010405F104058DF820300AF1FF3805D182
:105D400041463846FFF75AFCC0B9464401223B6839
:105D5000786808A9984788B9002C8AD04146B5E6EA
:105D6000079B9C420CD0079B0799A4EB0308424673
:105D70003B687868984700283FF473AC4FF0FF36D3
:105D800030460FB0BDE8F08F60FE20004FFE2000CF
:105D90007BFE200010B50D4C236813B90C4A13602C
:105DA00010BDFEF7D1F92268D2E900310B441B1A6D
:105DB00092681AB91844064B1860F1E7D2E900144A
:105DC0002144091A8B4228BF0B46F1E750070020F7
:105DD0004C070020014800F07DBA00BFB804002045
:105DE0002DE9F8430388054653B1592B48D187293B
:105DF00021D1002024490B6863B918B10B6001E080
:105E0000214A1360592301202B80BDE8F88301202B
:105E10003346F1E7D3E902649442F8D000B10B6055
:105E200019460B4689680029ECD0C8689042F8D121
:105E300089689960F4E78229E4D1134F4FF0000993
:105E4000B84600263C68002CDCD0204608F005FC53
:105E500098B122468821E06800F0FCF958B9A3689F
:105E6000E0602EB1B360C4F80890FFF793FFE8E755
:105E7000C8F80030F7E7FFF7ADFF2646A468E2E771
:105E8000002303800320C0E75007002010B504461C
:105E9000FFF7A0FFE3680B4A0BB1136833B90A4B55
:105EA0001B68E36013681460A36004E0A34206D19A
:105EB000054A1268DA60BDE81040FFF76BBF9B68C7
:105EC000ECE700BF50070020D8080020024B1868FC
:105ED000003818BF012070475007002010B50B4A4A
:105EE00004461368834208D183681360FFF752FFAA
:105EF0000023C4E9023310BD1346002BF8D09A6882
:105F0000A242F9D1A2689A60F0E700BF50070020D2
:105F1000F8B5038805461646CBB14A2B2BD1882904
:105F20001FD1174808F0AAFB0446C4B1231D9E42A6
:105F30001FD12146124808F0ABFB124E6269376848
:105F40003260A2690AB1E0699047376007E00C4807
:105F500008F094FB044634B901220B4B1A704A2313
:105F60002B8001200AE0A168201D08F038FB24687E
:105F7000F1E72468D9E7002303800320F8BD00BFC0
:105F800054070020D80800205028002010B5002415
:105F9000054B06481C7008F06EFB2146BDE810401A
:105FA000034800F07FB900BF5028002054070020AC
:105FB000C804002070B50446E3610B4B049D1B78B8
:105FC000C4E905526BB1094D094B2E68201D2B60A9
:105FD00008F005FB2E602146BDE87040054808F03A
:105FE0006ABBA160F7E700BF50280020D808002056
:105FF000C80400205407002013B5034C2468009403
:10600000FFF7D8FF02B010BDD808002070B5094BCB
:1060100004461B783BB1084D084B2E6804302B60BA
:1060200008F0E6FA2E602146BDE87040044808F00A
:1060300042BB00BF50280020D8080020C804002020
:106040005407002070B5094B04461B783BB1084D3E
:10605000084B2E6804302B6008F0D3FA2E602146DE
:10606000BDE87040044808F026BB00BF502800205F
:10607000D8080020C80400205407002010B5084BA1
:1060800004461B7843B10430FFF728FF2146BDE8E2
:106090001040044808F0FCBAC0E90333F6E700BF3B
:1060A000502800205407002038B5836804460D4668
:1060B0009BB10A4804600220A07304F10C009847C9
:1060C0000238012801D9832D05D121462046BDE89B
:1060D000384000F005B80123A37338BDD80800206C
:1060E0002DE9F8431C4F04463D6888462B46A342E1
:1060F00004D00BB9BDE8F8831B68F8E7002CF9D091
:10610000164EA37BD6F8009063B10023A3738DB91C
:10611000A3683BB1444505D02A468321346004F18D
:106120000C0098473B68A3420ED123683B60C6F839
:106130000090DFE7A54204D022468721284608F0D8
:1061400072FA2D68E3E71346002BF0D01A68A242DA
:10615000F9D122681A60EAE7DC080020D80800209C
:10616000002238B50125084B1A70084B1C6804B989
:1061700038BDE37B2BB1002282212046E581FFF769
:1061800093FF2468F3E700BF54280020DC080020B8
:10619000024B1878421C1A70704700BF522800202A
:1061A0008A22064B1A700023054A1370054A1370A1
:1061B000054A1360054A1360704700BF522800204B
:1061C0005128002053280020DC080020D808002097
:1061D0002DE9F0411A4D2B780BB1FFF7C1FF194C97
:1061E000267896B10C221849184F0B78013E5A4375
:1061F0000133B81803F01F03BF5C0B702670D0E9A1
:10620000018090B9124B1E6826B92B78207818446B
:10621000BDE8F0812B780BB1FFF7A2FF3046424674
:10622000394608F000FA3668EEE7812F08BF0123EF
:106230004246394608BF837308F0F5F9E5E700BF29
:1062400054280020532800205128002058070020FF
:10625000DC080020F0B50B4E3378202B0FD00C2536
:10626000094C0A4F24781C4404F01F046C433D1968
:10627000C5E901200020013339553370F0BD0120FC
:10628000FCE700BF532800205128002058070020B9
:1062900038B5034C256808F0C6F9256038BD00BF45
:1062A000D808002010B40A4C0A4621680B468342E5
:1062B0000CD04BB950B1016001212060817310BC3A
:1062C00081218381FFF7E4BF1B68F0E710BC7047B2
:1062D000DC08002038B1837B013B012B9FBF0123E9
:1062E000014AC373137070475428002010B5084C3E
:1062F000206858B100232360D0E901319847236812
:1063000023B1BDE810401868FDF752BF10BD00BFB3
:10631000E008002070B505880446672D09D0792D66
:106320002FD0002D33D1FFF733FF1B4B18701B4BC1
:106330001D601B4E194D08E00A282B680ED07E2BDD
:1063400003DC5A1C2A60174AD054304608F041FA40
:10635000431CF1D16723238001201BE05A1C2A60D3
:106360000025104A2846D5540B4B1978FFF772FFC9
:106370000D4B2A4685211868FFF76CFF18B9792361
:10638000E9E78529E8D10022044B1A60D1E7002310
:106390000380032070BD00BFFD3B0020E408002007
:1063A000E808002055280020D80800200D280146C4
:1063B00010B516D00C4C237853B90C4808F0F6F9F8
:1063C00008B9012323700A48FFF784FF012010BD9C
:1063D0000A28F8D1054808F0E9F90028F3D000238D
:1063E000F0E70020F3E700BFD5280020E8080020F0
:1063F000D804002008B505490548802208F0CFF9E7
:10640000BDE8084000210348FFF74CBFD628002014
:10641000E8080020D80400202DE9F0410488054652
:10642000772C20D07E2C3DD0002C4ED1FFF7B0FE33
:10643000284E294B294FDFF8B0801870346033683C
:1064400057F823202AB9264A137077232B8001207E
:106450003EE008F8034093680021802098473368A5
:1064600001333360EBE700231E4A1360194A1360BF
:10647000184B1B4A1B6812789A4204DC194B1B68A4
:10648000002BF0D1E1E7184AD256002A19DA134A54
:10649000002052F82320104B1978FFF7DBFE28B9B3
:1064A0007E23D3E70C4B1B788B42D0D1094B0E498E
:1064B0001A688B5C03F07F038B540A4A136801331C
:1064C0001360044A13680133D1E7002303800320DB
:1064D000BDE8F081F4080020FE3B0020800400208D
:1064E00056290020F0080020F83B002010B40A4B89
:1064F0000A4A197800238B4203DA52F8044BA0426F
:1065000008D107490748CA5C62F07F02CA5410BC30
:10651000FFF7E0BE0133EEE756290020800400209B
:10652000F83B0020E8040020064A136843F0040307
:106530001360054B186804331B6840EA032080B2DF
:10654000704700BF00700D4014700D4010B5174A21
:10655000136823F00C0313600122154B1A601A68AC
:10656000012AFCD10822134B13491A60E32203F5D8
:1065700005731A601A460B68DB07FCD50F4C102117
:1065800000232068013900F0010043EA00034FEACC
:1065900043039BB2F5D1002BF1D00949180A03F04F
:1065A000FE0308600B60EF23136010BD00700D4008
:1065B000A8200D4024860840648608409C86084038
:1065C00014700D402DE9FF476F46224D224E05F114
:1065D00008030FCB87E80F00337895F80780BBB12D
:1065E0003A221E49AA710A88D21A92B20A80A2F1EE
:1065F00028010812287103F128002844C3F104037C
:1066000069712C3A011D184407F028F900233370F2
:10661000134808F033F80446DFF840A02CB90F4BBC
:1066200034701C8004B0BDE8F087D4F80490B9F150
:10663000000F09D0BAF8003032782C3B383241468E
:1066400038469BB22A44C847204608F04FF8044613
:10665000E4E700BFEC3100207E290020D831002083
:10666000F8080020F8B52C4B2C4C1B7904F11806C7
:10667000E371237E04F10805FF2B31D195E80F006B
:1066800086E80F003146284600F0DCFA244D2B78CE
:10669000BBB13A222349A2710A8803F12800D21A19
:1066A00092B20A80C3F10403A2F1280120440E1221
:1066B00061712C3A011D1844267107F0CFF80023B0
:1066C0002B7081212B782833E218E152002353806C
:1066D00008F00AF9C0432B78134A13445880F8BDD8
:1066E0002F46124A3B4603CBB342106051601F460F
:1066F00002F10802F6D196E80F0085E80F000B4B77
:106700000B4D03F110062A4618685968083303C276
:10671000B3421546F7D1B9E76C300020EC310020C8
:106720007E290020D8310020143200201E1C0020B9
:106730000432002038B504460B480D4607F09EFF92
:1067400008B901200FE00379A34204D143799D42A7
:1067500004D0FF2B02D007F0C9FFF1E78368002BBC
:10676000EFD09847002038BDFC08002001460148C2
:1067700007F0A1BFFC0800202DE9F74F474D8146E7
:106780002B788846934653B1454A9B5C3A2B0ED1F1
:106790000023444A2B70138003B0BDE8F08F424BB6
:1067A0009A793A2A03D193F92830002BF0DA3F4C3A
:1067B00003F0B8FD04F110063746A2463C4A2346D2
:1067C00003CBB342106051601C4602F10802F6D1BF
:1067D000344E354C3388214630339BB2B3F5A06F2D
:1067E00088BF4FF4A063338032882B78D21A04EB31
:1067F0004300303A3030019307F030F86022019BBB
:1068000022603A22002B47D084F82820294B628945
:106810001B79E37123891343A2891343E28913434C
:10682000228A1343628A1343A28A1343E28A1343E0
:106830009BB2002BACD0204B0FCB8AE80F001C4B37
:106840001B78FF2B05D1B9F1040FA1D1B8F1020FCC
:106850009ED11749184800F0F5F995F800A0584660
:106860000AF12803E21804F8039082F8018001F08D
:10687000D1FC124B43F80A003388283B1A122271CC
:10688000002263712B783B445A8008F02DF8C043F6
:106890002B781F4478807FE7A271B7E77E2900201C
:1068A00014320020D8310020EC31002004320020C6
:1068B0001E1C00206C300020F43100201832002013
:1068C0002DE9F0411E4660231A4D0F462B603A23F6
:1068D0000446AB71184B90461B7900F1100CEB711C
:1068E000331D1A122A716B7105F1180213462068C4
:1068F0006168083403C364451A46F7D10F49104C48
:10690000A1F1100000F09EF923782C362833EA1804
:10691000EF54002382F80180538007F0E5FFC04365
:106920002378084A13445880074B1E80BDE8F04185
:1069300002F0AEBFEC3100206C30002004320020A9
:106940007E29002014320020D831002008B50448E8
:10695000FFF70CFFBDE808400248FFF707BF00BF84
:1069600004050020F80400202DE9F341144D0446ED
:10697000CDE900150E4690461F462022034603210E
:10698000104807F036FF012818D12B6804F11002D7
:10699000187020462B68023350F8041B904243F8CD
:1069A000041BF9D12868089B86744361099B80F811
:1069B00013800777836102B0BDE8F0810020FAE719
:1069C0000809002068310020F8B507460B4E0C4D31
:1069D0002E6060362C68B44201D30020F8BD2378C5
:1069E00033B1A27C3946D208A01C06F091FE10B14A
:1069F00020342C60EEE70120F0E700BF6831002072
:106A000008090020802213B5074C03460092032199
:106A100020220648019407F0ECFE10B9206802B06D
:106A200010BD0020FBE700BF0009002084300020DB
:106A300030B5044648F2FE050A490B4A1160603140
:106A40001068884201D3002030BD03783BB1631C3D
:106A500002D0837CA34202D14388AB42F4D02030E1
:106A60001060EDE7843000200009002030B50446B6
:106A700048F2FE050A490B4A1160603110688842ED
:106A800001D3002030BD03783BB1631C02D0837C6E
:106A9000A34202D14388AB42F4D120301060EDE72D
:106AA0008430002000090020802337B50F4D1222CA
:106AB00000930446034605210D48019507F099FE11
:106AC00001282A460FD12B6818702346296804F143
:106AD0001000023153F8044B834241F8044BF9D1C2
:106AE000106803B030BD0020FBE700BF04090020A0
:106AF000083100208023F7B5214C0093054603465A
:106B00000E461746032120221E48019407F071FE0D
:106B1000012832D12A46236805F110011870236834
:106B2000023352F8040B8A4243F8040BF9D120686F
:106B3000C774DEB9012303750122236812489A74D1
:106B400040F2FF230380002343808380C3800381BE
:106B50004FF480734381FF2303736B7B4373EB8993
:106B6000C381FFF7A1FF206803B0F0BD00233146C9
:106B70000375183007F012FDDEE70020F4E700BFD0
:106B800000090020843000202E1C0020802213B534
:106B9000074C03460092052112220648019407F093
:106BA00028FE10B9206802B010BD0020FBE700BF2E
:106BB000040900200831002038B50546C8B140F26C
:106BC000FF230C48002403804FF480734381FF238C
:106BD00044808480C48004810373EB7B43732B8ADD
:106BE000C381FFF7D3FF044A106008B107F025FE08
:106BF0002C7038BD2E1C00200409002038B50E4D25
:106C00000E4C256060352068A84206D300F0FEFADD
:106C1000BDE838400A4807F0EBBC037843B1037D78
:106C200033B9183007F0C1FC10B12068FFF7C4FF7A
:106C3000236820332360E6E7843000200009002029
:106C4000C83100202DE9F84F48F2FE030A880546B6
:106C50009A4288462BD00A78FF2A28D000249B46E7
:106C6000A2461A4A1A4F02F160093A603E684E4540
:106C70000AD30CBB2C806C80AC80EC802C816C81A6
:106C8000AC81EC81BDE8F88F33786BB1B37C012B1C
:106C90000AD173885B4507D04046B11C07F0DAFD86
:106CA00082459CBF3446824620363E60DEE70120A6
:106CB000FFF7BEFE0446DCE7A31C123453F8042B96
:106CC000A34245F8042BF9D1DCE700BF8430002053
:106CD0000009002070B5094EB0684508FFF724FC94
:106CE0000446FFF721FC2402B268A4B22044B0FBA2
:106CF000F2F302FB1300284470BD00BF6C3000208B
:106D000073B5304C01F0C8FA00F096F8602200210B
:106D10002D4806F009FE00212046F42206F004FE6C
:106D200020222A4B40261A701822294B00251A705F
:106D30004FF4A06344F8043C264B04F80469A360B4
:106D4000FFF7C8FF42F21073236148F2FE03E060D0
:106D50002575214C2A46238031462B466580A58027
:106D6000E5802046CDE90055FFF7FEFD20461B4992
:106D700007F067FD29460122FFF7BCFE40F2FF261F
:106D80004FF480732046E38126806580A580E580EE
:106D900025816581A581FFF787FE4FF400732046AA
:106DA00026806580A580E58025816581A581E381B8
:106DB000FFF77AFE0C210A4802B0BDE8704007F0E8
:106DC0000EBC00BF7030002068310020653100200B
:106DD00064310020C02709002E1C0020E43100206F
:106DE000C83100202DE9F047054610480F4690466F
:106DF00007F044FC0446DFF83890DFF838A00CB9FF
:106E0000BDE8F087012D0DDC504607F068FC034615
:106E10004246394628466668B047204607F066FC79
:106E20000446ECE7D9F80030F2E700BF500A002032
:106E3000540A00208C09002008B50B4807F059FCC3
:106E40000A4807F018FC0A4B0A49186804F05AFB74
:106E5000094807F04EFC094807F00DFCBDE8084062
:106E6000074807F008BC00BF3C050020580A002076
:106E70001C05002093E82000100500208C0900204C
:106E8000500A002008B540B1044B4168186808F06A
:106E90006EFCBDE8084007F033BD08BD1C050020AE
:106EA000014807F0EBBB00BF580A002008B507F007
:106EB00029FD014630B1044B186808F045FC003844
:106EC00018BF012008BD00BF1C0500202DE9F041BE
:106ED00080460027FFF7E4FF3D46044684B965B1CC
:106EE000124807F0CBFB854207D029460F4807F030
:106EF000CFFB29460D4807F0EBFB2846BDE8F081A3
:106F000094F82460BE420AD34046F20804F1080116
:106F100006F0FEFB18B9802E06D0374625462046DF
:106F200007F0B3FC0446D9E72546D9E7580A002004
:106F300038B5044600283FD04368002B3CD00146BA
:106F40001E4807F0A5FB6368586807F097FB0546E5
:106F500068B343689C4226D163682946586807F0A5
:106F600097FB6368586807F089FB28B9636859681C
:106F7000134B186804F072FB2146124807F0DDFB42
:106F80002946114807F0D9FB104A20461368013BF7
:106F90001360FFF777FF04F108010246BDE83840AF
:106FA0000320FFF71FBF284607F0A0FBCFE704F13F
:106FB000080002F0AFFBCFE738BD00BF580A002041
:106FC0001C0500203C05002030050020540A00204C
:106FD00010B5044680B1406870B107F04FFB30B97E
:106FE000064B2146BDE81040186804F037BB4068E6
:106FF000FFF79EFF6068F0E710BD00BF1C05002092
:107000002DE9F84F074610468A46904607F07AFC6D
:10701000064618B900252846BDE8F88F3846FFF720
:1070200055FF054660B1FFF72DFF014628B110223C
:10703000404606F06DFB0028EDD02846FFF778FFAC
:107040002C4B1A689B46102AE4D02B4D31462868F9
:1070500008F07AFBA946044668B903460422314683
:10706000286804F07FFA04460028D3D0002340604B
:10707000036007F000FB214807F04BFB06460028A1
:10708000C8D001461E4807F023FB1E4807F041FB0D
:10709000054620B93146194807F04FFBBBE746606B
:1070A0000146606807F007FBDBF80030214601333A
:1070B0007460D9F80000CBF8003004F0E5FA3B46E4
:1070C00006F1080407F110052246186859680833CC
:1070D00003C2AB421446F7D1002342463946022090
:1070E00086F824A0B361F3613362FFF77BFE354677
:1070F00091E700BF540A00201C0500203C05002039
:10710000580A00203005002038B505460D4807F024
:10711000B5FA044600B938BDAC420ED12146094843
:1071200007F0B6FA2146084807F007FB221D114672
:10713000BDE838400120FFF755BE204607F0D6FADB
:10714000E7E700BF8C0900201005002038B5054690
:10715000084807F093FA044608B9204638BD1022C3
:107160002946201D06F0D4FA0028F6D0204607F064
:10717000BDFAF0E78C090020F8B505460E46FFF78A
:10718000E5FF044640B9134807F0C3FA0446E0B1EE
:107190000146114807F09CFA2B46271D05F1100CFB
:1071A0003A4618685968083303C263451746F7D151
:1071B0006EB1314604F1140007F0F0F900232A46BD
:1071C000294600202377FFF70DFE2046F8BD012356
:1071D000F5E700BF100500208C09002038B50A48EB
:1071E00007F04CFA002504460CB9284638BD251D89
:1071F000284601F085F810B1437C002BF5D12046DC
:1072000007F074FA0446EFE78C09002038B50D4802
:1072100007F034FA04460B4D04B938BD237F63B937
:1072200004F1140007F0C1F938B12046FFF76CFFF4
:10723000284607F023FA0446EEE7204607F056FA00
:10724000F9E700BF8C09002037B5124B124D1C78AE
:107250002B7905F10801C4EB03226B7913449BB22F
:10726000ADF80630BDF806302022184480B207F091
:1072700012FBBDF8062004F1280192B2294407F060
:107280000AFB18B140BA80B203B030BD4FF6FF70B0
:10729000FAE700BF7E290020EC3100200220002107
:1072A000F8B5294F294D3A78294C283253195E7880
:1072B0002070F6000736864202DA19B3207021E00A
:1072C000131805EB030CEB5C012B06D0632B09D0E4
:1072D000D3B901300121C0B2EDE7831C9CF8010055
:1072E0001844F7E701B1207002F09EFF08B90120B1
:1072F000F8BD22783B78174913440B445B7802327F
:107300001A4422700020F3E703F0C003802B07D05B
:10731000C02B0ED0402B12D10029E8D02070E6E718
:1073200001B12070024402210420FFF725FA022057
:10733000DEE701B120702B7EFF2BF3D1D7E79CF85D
:1073400001300230CCE700BF7E290020EC31002064
:107350007F2900201432002070B5C578124B0D44EF
:10736000EDB2DD70827802EB1122D2B29A704478CD
:10737000B2EB112F5C7006781E7005D2601CC0B293
:10738000587008B901361E70C9B28D420BDA01324D
:10739000D2B29A703AB95A780132D2B25A7012B94E
:1073A0001A7801321A7070BDE031002010B5084C17
:1073B000014620681430FFF7CFFF064A2368117892
:1073C0001975517859759178D2789975DA7510BD1B
:1073D00010370020E031002008B5FFF791FCFFF7DF
:1073E000B5FA07F098FA002319460F4A1380538024
:1073F0009380D380138153819381D3810B4A0133CE
:107400000A2B82F8251002F13002F8D14FF4806285
:10741000074B1A8000231946064A01330A2B1182B2
:1074200002F12002F9D108BDFC38002014370020F9
:107430003E1C0020103900200246F0B52B4D2B8851
:1074400001339BB2B3F5FA4F28BF4FF4805328485D
:10745000002706461C0A44EA0324A4B296F825C075
:10746000BCF1000F03D0B6F810C0A445E8D0013736
:107470000A2F06F13006F1D12B8000252B4690F81B
:1074800025609EB1072E07D173B190F8267093F84E
:107490002660B74288BF034601350A2D00F130004F
:1074A000EDD123B91846F0BD0346F5E70346114870
:1074B000114E05781C821D76457859825D76857857
:1074C000C0789D76D87600201D4658610B48C3E9E8
:1074D00007600B4802F1100658622C46106851688C
:1074E000083203C4B2422546F7D1DBE73E1C002038
:1074F00014370020792900200100400040000010CE
:1075000003020100F8B5104E357845B10F4F05F173
:1075100027033C88A34203DB00233B803370F8BD84
:107520000B4BA4F128021846521B591906F096F984
:10753000641BA4B23C80283C2212002300F8242CB7
:1075400000F8234CEAE700BF7E290020D831002054
:1075500014320020074A0023114610B532F8024BBE
:10756000844203D1002221F8132010BD0133082BDF
:10757000F4D1FAE7FC38002004282DE9F74FAD4E8E
:1075800000F02081AC4FAD49AD4DAE4A0328BA465C
:1075900089463C680D6015605ED194F8253003F093
:1075A0000F03032B14D1A38B002B40F08280082201
:1075B000A54B1A7002F0D4FAA34B1A78A34B12F021
:1075C000200100F0958500221A8084F8252096E09D
:1075D000022B6ED1002305F8073C9D4B93F8352014
:1075E00042F0020283F835209A4ADA634022328060
:1075F000602283F83420237D954D85F83030637DFB
:1076000005F1180785F83130A37D85F83230E37D28
:1076100085F83330237E85F82C30637E85F82D3055
:10762000A37E85F82E30E37E85F82F30238A2B85C4
:10763000638A6B8594E80F0087E80F00394605F1EF
:107640000800FFF7FFFA94F82530DB064CBF002353
:107650004FF48043EB863FE3022840F09F800023F5
:107660007D4A33801370794A13807C4AD378013382
:10767000DBB2D37063B993780133DBB293703BB95B
:1076800053780133DBB2537013B91378013313709D
:1076900094F8253003F0FD02052A13D194F8263022
:1076A0000133DBB2782B84F8263002D1002384F832
:1076B00025300023684A33801370694A1370624A88
:1076C00013705CE1002BF4D0A28B5F49002A5ED0DE
:1076D00094F82620501E84F82600002AE9D194F858
:1076E0002720082A04D0581E01280CD8052A0AD1C0
:1076F000002384F8253080230B7002F031FA142225
:10770000534B00F0BCBC042A15464FF0030028BFC1
:10771000042503F00F03A8400132013B84F8260042
:1077200084F82720072BC4D801A252F823F000BF09
:10773000C17D2000517720005B7720007B802000F6
:10774000B37620007B802000B37620007B80200071
:1077500000223F4B83F835203FE704230B7002F0F3
:10776000FFF9384B1B68C9F80030384B1B88002BD9
:1077700000F0DE84A38B002B00F0DA8418223C3367
:107780003380334B83F835205022314B31E703F0FF
:107790000F03032B8DD108230B700BE7052863D152
:1077A000304B1B681B8A002B83D000230C3D1560D7
:1077B000264A3B60138008223380234B0D601A70E9
:1077C00002F0CEF9214B1A88002A3FF472AF02F181
:1077D00030031F4C9BB23380283B19126371214B3D
:1077E00008321B6852BA2171197DA2850022E1710D
:1077F0001121E2851A8AA17122855A8A04F118059D
:1078000062850FCB85E80F00294604F10800FFF7D9
:1078100019FA0A4B04F13C021A6007F06BF8C043F6
:1078200080B2002800F0FB81E0856022084B1A60DE
:10783000A2E000BFD8310020103700200C37002014
:1078400028320020DC310020003700200C390020D5
:10785000EC310020020400407E290020792900201C
:107860007D2900200837002015F83C3C3C3D03F002
:10787000F003602B7FF41DAF2A796B7930881102F9
:1078800003EB022282423FF714AF28330B443380CC
:107890002B7AFF2B3FF40DAFBD4BAA1D1A600022BF
:1078A000BC4FBD4C3A702270AA799846A2B9012308
:1078B0002370FFF7F3FC01283FF4FBAE02285BD0F6
:1078C00050B93B7803F128022A44C8F800205278C6
:1078D000083303EBC2033B70B048FFF793F800286E
:1078E00040F02A81AD48FFF751F9002840F024818B
:1078F000297E2B89FF2945D048F2FE002A8B82423F
:1079000040D0834243D069890B43A9890B43E9895D
:107910000B43298A0B43698A0B43A98A0B43E98AE3
:107920000B439BB2002B3FF4C4AE6B8B1343AA8B6B
:107930001343EA8B13432A8C13436A8C1343AA8C98
:1079400013439BB223B9EB8CB3F5807F3FF4B1AE08
:107950003388B3F5A06F06D94FF4A062002102204E
:10796000FEF70AFF08E0EB79012B03D80022032081
:107970001146F5E7013BEB710022894B1A7003B009
:10798000BDE8F08F48F2FE0293427FF492AE6A8B1C
:107990002B8B1343AA8B1343EA8B13432A8C134379
:1079A0006A8C1343AA8C13439BB223B9EB8CB3F5B7
:1079B000807F3FF47EAEFF293FF47BAE7748FFF730
:1079C00003F8024600287FF474AE02210120C7E7C5
:1079D000BBF12B0F40F0C680237813F0040140F078
:1079E000C1803A7843F00403237002F128032B444A
:1079F000D878002800F0C4802A320420B0E7BBF118
:107A00003B0F3FF456AEBBF13C0F00F0AE80BBF134
:107A10003A0F40F0A78006F067FF4FF6FF739842D9
:107A20007FF447AE3B785F4AD05C01F00BFF3B78B8
:107A30002833EA185178E85CFEF77CFE01283FF411
:107A400038AE3388002B97D133E6FFF75BFD85F81E
:107A500006B006F04CFF4FF6FF7398427FF429AE54
:107A6000B5F82AB0BBF1000F3FF423AE2B8D002BED
:107A70003FF41FAE4FF00A084B4C94F825200092BB
:107A8000002A00F0D080228A5A4540F0CC80628AD9
:107A90009A4240F0C880102221464448019305F0E4
:107AA00037FE019B0246002840F0BD8095F8351056
:107AB0003B4B11F0040F9846CAF80040187000F0D4
:107AC0008681202284F825001A7002F049F8F0E53A
:107AD000FFF718FDEB8D85F806B0002B6CD16F8D8C
